:0308E30001080009
:0B08D800EF1FAC0670011E4C70F622F2
:1008B3007D64AF051DEF600BB2957F647E00120867
:0308C300D880EFEB
:0108C600220F
:10088C0020B1107FE87E031208D820B1037508014F
:10089C0030B1FD20B0107FE87E031208D820B003E1
:0708AC00E4F50830B0FD2265
:1008C70012088CE508B401051208B380F3D29580AD
:0108D700EF31
:03000000020800F3
:0C080000787FE4F6D8FD758108020847F7
:10080C000208C7E493A3F8E493A34003F68001F233
:10081C0008DFF48029E493A3F85407240CC8C333ED
:10082C00C4540F4420C8834004F456800146F6DFBC
:10083C00E4800B01020408102040809008E3E47E61
:10084C00019360BCA3FF543F30E509541FFEE493B1
:10085C00A360010ECF54C025E060A840B8E493A378
:10086C00FAE493A3F8E493A3C8C582C8CAC583CAA3
:10087C00F0A3C8C582C8CAC583CADFE9DEE780BE5B
:0108E6000011
:00000001FF
