:0A0D110012000000FFFFFFFFFFFFCC
:100330007879E6FF14B40C00400302046690034B86
:1003400075F003A4C58325F0C5837302036F020310
:100350007502039F0203C90203E1020403020403BE
:1003600002040902042802043D0204660204551234
:100370000C940203FB787AE6FF7B007A00797B120B
:100380000A948F22EF6014787AE6FF7B007A007976
:100390007B120A948F22EF600280687879803E7B1E
:1003A000007A00797B1208968F22EF6002805478E1
:1003B000977C007D007B007A00797B7E007F0412B1
:1003C000028A787976050204517B007A00799712C7
:1003D000080E8F22EF7879600476018074760380AE
:1003E00070787AE6FF787CE6FD752800752900753F
:1003F0002A977BFF7A0D79151207848F22787976F8
:1004000001804E787976018048787AE6FF7B007A21
:1004100000797B120A258F22EF787970047611809B
:10042000027601787AA62222787AE6FF7B007A00AB
:10043000797B12057D8F22787976018014787AE6AF
:10044000FF08E6FD7B007A00797C120467787976F4
:100450000108A62222787AE6FF08E6FD1206F27865
:07046000797601E408F622A1
:100AF8007580FF7590FF75B0FFC2AD75C804758726
:100B080080759870758921758DF4858D8BD28E7559
:100B18008C60758A60C28CC2A9C2ABD2AFD2A8D28F
:100B280088C2CAD2ACC200D295120C56120D1B1242
:100B38000CF37F41120C0BC2957F0A7E00120CD178
:0C0B4800D2957F0A7E00120CD1C29522CB
:030023000209A42B
:1009A400C0E0C0D075D008E4FDFC30983DAE99C2DB
:1009B40098FFEFC39E502920980E0DBD00010CD363
:1009C400ED94E8EC940340EFC3ED94E8EC94035009
:1009D4000F74792FF8A699C2987C007D000F80D2FD
:1009E400EF6E7038C29CD200803220982F30992C40
:1009F400C2997879E6FE7F00EE2401FDE433FCEF32
:100A0400C39DEC6480F8748098500F74792FF8E6D5
:100A1400F5993099FDC2990F80DED29CD0D0D0E0F8
:010A2400329F
:10065000120AF83000FDC2007879E6640B701B08BE
:10066000E608F678797601E408F6D299D29508E69C
:10067000FF7E00120CD1C29580D97879E6640D70A6
:100680006908E6B40700503C90068FF828287302EA
:1006900006A40206A60206AB0206B00206B50206D2
:1006A000BA0206BF801E7521F8801C7521FA8017DA
:1006B0007521FC80127521FD800D7521FE80087565
:1006C00021FF80037521F478797601E408F6D29948
:1006D0007F05FE120CD1C28E85218D858D8B7F0208
:1006E0007E00120CD1D28E020653120330D2990230
:0206F0000653AF
:100A94008F238B248A2589261200037D077F0D125C
:100AA4000BB47D037F141200158523297544017549
:100AB4004500754600754729754800754900754A13
:100AC400277A00792912003FEFFD3395E04D70211C
:100AD400E528641045277019AB24AA25A926E52921
:100AE4001202DDAB24AA25A926900001E52A020200
:040AF400EF7FFE2270
:100896008B238A248925E4F527120003E4FD7F0DC6
:1008A600120BB47D807F0E120007752A93752B20DC
:1008B60075440275450075460075472A75480075EA
:1008C6004900754A287B007A00792A7F0C1200437A
:1008D6008F26EF3395E04F7034FFEFC39404748096
:1008E6009480501D742A2FF8E6AB23AA24A9258FDD
:1008F600827583001202EF742A2FF8E662270F80B2
:10090600D9742A2FF8E6652760037526FE7D807F59
:070916000E120015AF2622AE
:10080E008B238A248925752893752970E4F52EFF8C
:10081E00EFC39404748094805022AB23AA24A9259C
:10082E008F827583001202B0FE742A2FF8A6068FEF
:10083E00827583001202B0622E0F80D4753F007550
:10084E00400075412F7B007A0079287D0712092E12
:10085E0012000375440975450075460075472875E5
:10086E004800754900754A267B007A0079287F0C6E
:10087E00120043EFFD3395E04D700AE527641845ED
:08088E00267002FF227FFE220A
:100784008B258A2689278F2E8D2FE4FFEFC39406AD
:10079400748094805018AB25AA26A9278F8275836C
:1007A400001202B0FE74302FF8A6060F80DEE4FFBC
:1007B400EFC39406748094805018AB28AA29A92A00
:1007C4008F827583001202B0FE74362FF8A6060FCE
:1007D40080DE75440C75450075460075472E7548D6
:1007E40000754900754A2C7B007A00792E7F0E1221
:1007F40000438F2BEF3395E04F70097F08120B5A9B
:0A080400EF20E303752BFEAF2B225B
:100A25008B238A2489257528308F29753F007540C9
:100A35000075412A7A00792812092A7544047545FA
:100A450000754600754728754800754900754A26A2
:100A55007B007A0079287F0C120043EFFD3395E087
:100A65004D7029E527649045267021FEEEC394104C
:100A750074809480501874282EF8E6AB23AA24A914
:0F0A8500258E827583001202EF0E80E07FFE2225
:10057D008B238A2489257528A08F29753F00754006
:10058D000075412A7B007A0079287D0212092E75AB
:10059D004404754500754600754728754800754932
:1005AD0000754A267B007A0079287F0C120043EFF4
:1005BD00FD3395E04D7010E527640445267008E580
:1005CD0028540F640A60027FFEEFFD3395E04D70F5
:1005DD0071FEEEC39410748094805018AB23AA243E
:1005ED00A9258E827583001202B0FD74282EF8A6FF
:1005FD00050E80DE753F007540007541387B007A31
:10060D000079287D1012092E754412754500754626
:10061D0000754728754800754900754A267B007A94
:10062D000079287F0C120043EFFD3395E04D7010DB
:10063D00E527640445267008E528540F640A600216
:03064D007FFE220B
:100C9400752650E4F527F53F754000754128FB7A29
:100CA4000079267D0212092E7544047545007546A7
:100CB40000754726754800754900754A247B007AFB
:0D0CC4000079267F0C1200438F237F002251
:10091D00753F007540007541287A0079267B007D72
:01092D0002C7
:10092E008B3B8A3C893D8D3E7D047F05120007126C
:10093E000BB07D807F0A120015E4F542E542C395A7
:10094E003E5019AB3BAA3CA93D85428275830012ED
:10095E0002B0FD7F09120BB4054280E07D037F01DA
:10096E00120BB47542FF7F05120B5A1542E5426019
:10097E0004EF30E2F17F22120B5AAB3FAA40A9419D
:10098E00EF1202DD7F21120B5AAB3FAA40A9419014
:06099E000001EF0202EF70
:100C5600D29400C29400D294007D0F7F01120BB48F
:100C6600007D3D7F11120BB47D1E7F2D120BB4E467
:100C7600FD7F2C120BB47D8D7F2A120BB47D3E7F37
:0E0C86002B120BB47D407F15120BB47F0022A1
:100C0B00EF644170401200037D3D7F11120BB47DE8
:100C1B00867F17120BB47D7F7F26120BB47D1E7F50
:100C2B002D120BB4E4FD7F2C120BB47D8D7F2A1299
:100C3B000BB47D3E7F2B120BB47F017E00120CD1C7
:0B0C4B00120CF380037FFF227F0022C9
:060B5400AC07AB05E4FE56
:100B5A00E4FEC291C292EF25E0547E4480FF7D08F4
:100B6A00EDD39400748094804018EF5480648070B0
:100B7A0003D38001C39290D291EF25E0FFC2911D69
:100B8A0080DE7D08EDD39400748094804011D29168
:100B9A00EE25E0FEA293E4334206C2911D80E5D21F
:060BAA0092D291AF062279
:040BB000E4FD7F01E0
:100BB400C291C292EF25E0547EFF7E08EED39400EA
:100BC400748094804018EF548064807003D3800153
:100BD400C39290D291EF25E0FFC2911E80DE7E0881
:100BE400EED39400748094804018ED548064807037
:100BF40003D38001C39290D291ED25E0FDC2911EF2
:070C040080DED292D29122A2
:0D001500120B54AE07AF04EB4EFD020BB40E
:040003007D087F08ED
:0E000700120B54AE07AF04EBF45EFD020BB417
:100026007544047545007546007547267548007584
:0D0036004900754A247A0079267B007F0C72
:100043008F408B418A428943754BFEE4F54CF54D55
:10005300E54024F4600C24FE700E754C12754D10AF
:100063008006754C77754D30E54C4480FD7F021258
:100073000BB47D807F04120007120BB07D807F0AD2
:10008300120015E4F54FF550C3E5509544E54F9440
:1000930000501FAB41AA42A943855082854F83126A
:1000A30002B0FD7F09120BB40550E55070DA054F1D
:1000B30080D6AD407F01120BB4E540640C70077D20
:1000C300807F0D120015754F077550D07F04120BFA
:1000D3005A8F4EE55015507002154FE550454F604D
:1000E30009E54E20E004554D60E27D807F0D12004E
:1000F30007E550454F70030201AD7F06120B5AEF1F
:10010300541B60030201AAF54BE54E554C30E00346
:10011300754BFFE540640C60030201AD7F0A120BCF
:100123005A8F4E7F0C120B5AEF5407FD6021E54E98
:1001330024FFFFE434FFFEEF7803C333CE33CED87E
:10014300F97C002DFFEC3EAB48AA49A94A800FE594
:100153004E75F008A4FFAB48AA49A94AE5F08FF011
:10016300120311E54E7003754E01D3E54E941274DC
:100173008094804003754E12E4F54FF550C3E5506B
:10018300954EE54F940050227F09120B5AAB45AAB6
:1001930046A947855082854F83EF1202EF0550E54C
:1001A3005070DA054F80D6754BFE7D807F0C1200B0
:0701B30015120BB0AF4B2247
:100CF3007F14120B5AEF540370077D037F14120005
:020D03001522B7
:070D1B007D037F14020007B5
:100467008D238B248A2589268F2985232A753F008A
:1004770075400075412B7B007A0079297D021209AE
:100487002E75440475450075460075472975480063
:10049700754900754A277B007A0079297F0C12007D
:1004A70043EFFD3395E04D7010E528640445277050
:1004B70008E529540F640A60027FFEEFFD3395E0DB
:1004C7004D705878297C00FDAB24AA25A926FE7F0C
:1004D7000412028A753F0075400075412D7B007A32
:1004E7000079297D0412092EE4F527F528754406BD
:1004F700F545754600754729F548754900754A273A
:10050700FB7A0079297F0C120043EFFD3395E0FC5D
:10051700ED64FE7002ECF46002E4FFEFFD3395E05A
:100527004D70527529B085232AF53F7540007541F6
:100537002BFB7A0079297D0212092E754404754533
:1005470000754600754729754800754900754A27A3
:100557007B007A0079297F0C120043EFFD3395E089
:100567004D7010E528640445277008E529540F6489
:060577000A60027FFE2273
:1006F2008D237526C28F2712091D120026EFFD33A6
:1007020095E04D7010E525640445247008E52654F3
:100712000F640A60027FFEEFFD3395E04D7031F504
:1007220026F527F528F529F53F75400075412AFB86
:100732007A0079267D0412092E754406120029EFEB
:10074200FD3395E0FCED64FE7002ECF46002E4FF20
:10075200EFFD3395E04D60037FFE227526B08523C1
:100762002712091D120026EFFD3395E04D7010E5AA
:1007720025640445247008E526540F640A60027F4C
:02078200FE2255
:100CD10075CBB875CA0075CDB875CC00D2CAEF1FF7
:100CE100AC0670011E4C600730CFFDC2CF80EFC251
:020CF100CA2215
:03000000020D05E9
:0C0D0500787FE4F6D8FD75819A02065054
:1001BA00E709F608DFFA8046E709F208DFFA803E27
:1001CA0088828C83E709F0A3DFFA8032E309F60814
:1001DA00DFFA8078E309F208DFFA807088828C837C
:1001EA00E309F0A3DFFA806489828A83E0A3F60830
:1001FA00DFFA805889828A83E0A3F208DFFA804C0A
:10020A0080D280FA80C680D4806980F280338010E0
:10021A0080A680EA809A80A880DA80E280CA803349
:10022A0089828A83ECFAE493A3C8C582C8CCC583C1
:10023A00CCF0A3C8C582C8CCC583CCDFE9DEE78091
:10024A000D89828A83E493A3F608DFF9ECFAA9F010
:10025A00EDFB2289828A83ECFAE0A3C8C582C8CC66
:10026A00C583CCF0A3C8C582C8CCC583CCDFEADE7F
:10027A00E880DB89828A83E493A3F208DFF980CCE1
:10028A0088F0EF60010E4E60C388F0ED2402B404DA
:10029A000050B9F582EB2402B4040050AF23234581
:0602AA00822390020A739A
:1002B000BB010CE58229F582E5833AF583E0225003
:1002C00006E92582F8E622BBFE06E92582F8E2224D
:0D02D000E58229F582E5833AF583E4932267
:1002DD00BB010689828A83F0225002F722BBFE0100
:0202ED00F322FA
:1002EF00F8BB010DE58229F582E5833AF583E8F045
:1002FF00225006E92582C8F622BBFE05E92582C8F1
:02030F00F222D8
:10031100BB010A89828A83F0E5F0A3F0225006F737
:0F03210009A7F01922BBFE06F3E5F009F3192234
:00000001FF
