:10000300B4F3D0DBB5E7D7D3D3AAD2B5B2BF006977
:1000130063323031322E74616F62616F2E636F0011
:10002300D7A8D2B5D4AABCFEB9A9D3A6C9CCA3A1DB
:1000330000202051513A20353731363330303539AD
:100043002000FFFFFFFFFFFFFF0000000000000094
:10005300000000000000000000000000000000009D
:1000630000000000001E000000000000000000006F
:1000730000000000005F800000000000000000009E
:100083000000000000FFC0000000000000000000AE
:100093000000000001FFE00000000000000000007D
:1000A30000000001E1FFE08000000000000000000C
:1000B3000000000FF9FFEFF0000000000000000057
:1000C3000000001FFDFFFFF8000018008700180064
:1000D30000C0001FFEFFFFF8000018018D8018010B
:1000E300F7C0003FFFFFFFFC000018018DA01800C0
:1000F3000380003FFFFFFFFC00001827FFF1FFC054
:100103000600003FFFFFFFFC0003FFF19D0108C055
:100113000C00003FFFFFFFFC000018017D6118C0C9
:100123000860001FFFFFFFFC00001801DFE1FFC7AD
:10013300FFF0001FFFFFFFFC00001C03ED0118C0D0
:100143000800001FFF01FFF8000016028D6118C0B0
:100153000800000FFE00FFF800003202AD81FFC06F
:1001630008000007F8003FD0000023073D011820D6
:10017300080000FDF8003FE000006185FD20182025
:10018300080001FFF0001F40000080F00FE018207E
:10019300780003FFF0000F80000300600C000FE005
:1001A300180003FFE0000FF0000000000000000053
:1001B300000007FFE0000FF4000000000000000053
:1001C300000007FFE0000FFE000000000000000039
:1001D300000007FFE0000FFF000000000000000028
:1001E300000003FFE0000FFF80000000000000009C
:1001F300000003FFE0001FFFC0000000000000003C
:10020300000003FFF0001FFFC0000000000000001B
:10021300000001FFF0003FFFC000000000000000ED
:10022300000001FFF8007FFFC00000000000000095
:10023300000000FFFC00FFFF800000000000000042
:100243000000003FFF87FFFF800000000000000068
:1002530000000003FFFFFFFF00000000000000009C
:1002630000000003FFFFFFFE00000000000000008D
:1002730000000003FFFFFFFC00000000000000007F
:1002830000000003FFFFFF0000000000000000006B
:1002930000000003FFFFFF0000000000000000005B
:1002A30000000003FFFFFF0000000000000000004B
:1002B30000000003FFFFFE0000000000000000003C
:1002C30000000003FFFFFE0000000000000000002C
:1002D30000000003FFFFFC0000000000000000001E
:1002E30000000001FFFFF800000000000000000014
:1002F30000000000FE77E0000000000000000000A6
:1003030000000000007001F0000000000000000089
:100313000000000000700FFC00000000000000005F
:100323000000000000703FFE00000000000000001D
:10033300000000000078FFFE000000000000000045
:100343000000001FFC79FFFE000000000000000019
:100353000000007FFF39FFFE0000000000000000E6
:10036300000000FFFFFDFFFC000000000000000094
:10037300000000FFFFFFFFF8000000000000000086
:10038300000000FFFFFFFFF000000000000000007E
:100393000000007FFFFEFFE00000000000000000FF
:1003A3000000003FFFEF7E0000000000000000009F
:1003B3000000000FFFEF000000000000000000003D
:1003C30000000007FFC780000000000000000000DD
:1003D30000000001FF83C0000000000000000000D7
:1003E300000000001E01E00000000000000000000B
:1003F300000000000001F000000000000000000009
:100403000000000000006000000000000000000089
:1004130000000000000000000000000000000000D9
:1004230000000000000000000000000000000000C9
:1004330000000000000000000000000000000000B9
:020443000000B7
:1005680012069B12063D1206DC1206807E007F45AD
:1005780012044512069B12069B12069B12069B123A
:10058800069B1206807A007B037D01E4FF1204EDCE
:100598007A007B127D02E4FF1204ED7A007B237D52
:1005A80003E4FF1204ED7A007B347D04E4FF1204B7
:1005B800ED12069B12069B12069B12069B1206134F
:0205C80080A70A
:1006B4008F0F1206C9D290C291850FA0D292D29206
:0506C400D292C2922257
:060661007D017C007F0812
:100667008F0FED4C60031206C9C290C291850FA08F
:09067700D292D292D292C29222D8
:0D06EB00D290D291C292C292D292AFA022C0
:1006C90075A0FFC290D291D292E5A020E7FBC29219
:0306D900AFA022AD
:10063D007D017C007F301206677D017C007F0112F9
:10064D0006677D017C007F061206677D017C007FB9
:04065D000C0206671E
:100680007D017C007F011206677D017C007F3412B2
:0B06900006677D017C007F30020667DA
:1006130012066112069B7D017C007F0C1206671295
:10062300069B12066112069B7D017C007F0C12065D
:0A0633006712069B12066102069B87
:1005CA008B10EDC394017480948050027D01EDD3A9
:1005DA0094047480948040027D0453070FED24FE36
:1005EA00600F146011146013240370124307808093
:1005FA000D43079080084307888003430798E4FD6A
:09060A00FC120667AF100206B4F1
:0604ED008F088A098B0A4A
:1004F300E4F50BEDC394017480948050027D01ED0B
:10050300D394047480948040027D0453080FED2437
:10051300FE600F14601114601324037012430780EC
:10052300800D430790800843078880034307987D25
:10053300017C00120667E50A250BF582E43509F50F
:1005430083E493FFC39420748094804017E508D319
:10055300940F7480948050DE1206B4050B050812C4
:0405630006DC80D260
:010567002271
:040445008E088F0985
:10044900E4F50DF50EF50CC3E50C94097480948060
:1004590040030204DBE4F50AC3E50A94207480949E
:100469008050667D017C007F34120667E50A24808E
:10047900FF7D017C00120667E50C2480FF7D017C6D
:10048900001206677D017C007F30120667E4F50BD8
:10049900C3E50B941074809480501F7E00E50E25EF
:1004A9000BFFEE350DFEE5092FF582E5083EF583D4
:1004B900E493FF1206B4050B80D67410250EF50ED1
:1004C900E4350DF50D050A808F7408250CF50C022D
:1004D90004507D017C007F361206677D017C007F18
:0404E9003002066770
:0E06DC007FB07E15EF1FAC0670011E4C70F64D
:0106EA0022ED
:10069B007D05AC051DEC60107E1C7F65EF1FAA0667
:0806AB0070011E4A60EC80F4AE
:0106B3002224
:030000000206F8FD
:0C06F800787FE4F6D8FD758110020568DB
:00000001FF
