:03000000021211D8
:0C121100787FE4F6D8FD75813C0212588D
:100003001060028C0000FE9292929292FE00000019
:1000130004047E01407E42427E427E42427E400094
:100023000000FC242424FC252624FC24242404008E
:1000330040308F80844C55252525554C8080800089
:10004300000000000000FF4040404040400000002E
:100053004040404040407F4040404040404040009E
:10006300020202020202FE020242820202020200B3
:10007300000000000000FF00000000010600000077
:1000830000FE225A8600FE9292929292FE00000097
:1000930000FF04080700FF4020030C142241400026
:1000A3001060028C00FE929292929292FE000000E7
:1000B30004047E014448507F40407F504844400040
:1000C300FFFFFFFFFFFF00BFBFBFBFBFBFFFFFFFBC
:1000D300BFBFBFBFBFBF80BFBFBFBFBFBFBFBFFF2C
:1000E300FDFDFDFDFDFD01FDFDBD7DFDFDFDFDFFF7
:1000F300FFFFFFFFFFFF00FFFFFFFFFEF9FFFFFF13
:100103000000000000000000002F000000000700B6
:10011300070000147F147F1400242A7F2A12006230
:1001230064081323003649552250000005030000DC
:1001330000001C224100000041221C000014083E64
:1001430008140008083E0808000000A0600000082A
:10015300080808080000606000000020100804027E
:10016300003E5149453E0000427F4000004261513C
:100173004946002141454B31001814127F100027D6
:1001830045454539003C4A49493000017109050399
:1001930000364949493600064949291E00003636CA
:1001A300000000005636000000081422410000142D
:1001B300141414140000412214080002015109060A
:1001C30000324959513E007C1211127C007F49498B
:1001D3004936003E41414122007F4141221C007FBC
:1001E30049494941007F09090901003E4149497ACA
:1001F300007F0808087F0000417F41000020404144
:100203003F01007F08142241007F40404040007FAF
:10021300020C027F007F0408107F003E4141413EF3
:10022300007F09090906003E4151215E007F09193B
:1002330029460046494949310001017F0101003F38
:100243004040403F001F2040201F003F4038403FB8
:10025300006314081463000708700807006151491C
:10026300454300007F41410000552A552A550000AF
:1002730041417F000004020102040040404040402D
:10028300000001020400002054545478007F4844C5
:10029300443800384444442000384444487F0038FC
:1002A3005454541800087E0901020018A4A4A47C25
:1002B300007F080404780000447D400000408084EF
:1002C3007D00007F102844000000417F4000007C37
:1002D30004180478007C0804047800384444443843
:1002E30000FC242424180018242418FC007C08048F
:1002F300040800485454542000043F444020003C68
:100303004040207C001C2040201C003C4030403CEE
:10031300004428102844001CA0A0A07C004464547E
:100323004C441414141414140000000000000000C2
:100333000000000000000000000000F800000000C2
:10034300000000333000000000100C06100C060003
:10035300000000000000000040C07840C07840006A
:10036300043F04043F040400007088FC08300000CC
:10037300001820FF211E0000F008F000E018000024
:1003830000211C031E211E0000F0088870000000DD
:100393001E2123241927211010160E00000000002F
:1003A3000000000000000000000000E0180402004C
:1003B300000000071820400000020418E0000000BD
:1003C3000040201807000000404080F080404000BB
:1003D3000202010F01020200000000F00000000011
:1003E3000101011F010101000000000000000000E5
:1003F30080B070000000000000000000000000005A
:1004030000010101010101010000000000000000E2
:10041300003030000000000000000000806018047D
:10042300006018060100000000E010080810E0005A
:10043300000F102020100F00001010F80000000023
:100443000020203F2020000000700808088870006A
:1004530000302824222130000030088888483000EA
:100463000018202020110E000000C02010F800000A
:1004730000070424243F240000F8088888080800A3
:100483000019212020110E0000E0108888180000B8
:10049300000F112020110E0000380808C83808008A
:1004A3000000003F0000000000708808088870000A
:1004B300001C222121221C0000E010080810E0008B
:1004C3000000312222110F00000000C0C000000014
:1004D3000000003030000000000000800000000039
:1004E3000000806000000000000080402010080031
:1004F30000010204081020004040404040404000FA
:1005030004040404040404000008102040800000D4
:100513000020100804020100007048080808F000D9
:100523000000003036010000C030C828E810E000A9
:100533000718272423140B000000C038E000000034
:10054300203C23020227382008F88888887000009E
:10055300203F202020110E00C03008080808380072
:10056300071820202010080008F808080810E000E9
:10057300203F202020100F0008F88888E80810008A
:10058300203F20202320180008F88888E80810005E
:10059300203F200003000000C03008080838000096
:1005A30007182020221E020008F808000008F80897
:1005B300203F210101213F20000808F8080800001E
:1005C3000020203F2020000000000808F808080051
:1005D300C08080807F00000008F888C028180800C9
:1005E300203F20012638200008F808000000000002
:1005F300203F20202020300008F8F800F8F80800F9
:10060300203F003F003F200008F830C00008F808F2
:10061300203F200007183F00E01008080810E00002
:100623000F10202020100F0008F808080808F00019
:10063300203F210101010000E01008080810E0003C
:100643000F18242438504F0008F8888888887000D1
:10065300203F2000030C3020007088080808380071
:100663000038202121221C00180808F80808180067
:100673000000203F2000000008F808000008F808E8
:10068300001F202020201F000878880000C8380899
:10069300000007380E010000F80800F80008F80011
:1006A300033C0700073C03000818688080681808AB
:1006B30020302C03032C30200838C800C838080029
:1006C3000000203F2000000010080808C838080078
:1006D3002038262120201800000000FE020202001C
:1006E3000000007F40404000000C30C000000000CC
:1006F300000000010638C00000020202FE000000F4
:10070300004040407F000000000004020202040099
:1007130000000000000000000000000000000000D6
:1007230080808080808080800002020400000000BE
:1007330000000000000000000000808080800000B6
:100743000019242222223F2008F8008080000000A4
:10075300003F112020110E00000000808080000067
:10076300000E112020201100000000808088F80076
:10077300000E112020103F200000808080800000A8
:10078300001F222222221300008080F0888888180C
:100793000020203F20200000000080808080800017
:1007A300006B94949493600008F8008080800000AC
:1007B300203F210000203F20008098980000000087
:1007C3000020203F202000000000008098980000B7
:1007D30000C08080807F000008F8000080808000D7
:1007E300203F24022D302000000808F800000000FC
:1007F3000020203F202000008080808080808000B7
:10080300203F20003F20003F808000808080000048
:10081300203F210000203F200000808080800000D6
:10082300001F202020201F00808000808000000007
:1008330080FFA12020110E00000000808080800036
:10084300000E112020A0FF80808080008080800027
:1008530020203F2120000100000080808080800054
:100863000033242424241900008080E080800000C9
:100873000000001F20200000808000000080800016
:10088300001F202020103F20808080000080808077
:1008930000010E3008060100808000800080808007
:1008A3000F300C030C300F0000808000808080002C
:1008B3000020312E0E312000808080000080808057
:1008C30080818E7018060100008080808080800007
:1008D3000021302C2221300000000000807C020225
:1008E30000000000003F404000000000FF00000047
:1008F30000000000FF0000000002027C80000000F6
:100903000040403F00000000000601010202040411
:100913000000000000000000000000001C141C0088
:1009230000000000000000000000000000000000C4
:1009330000000000000000000000000000000000B4
:1009430000000000000000000000000000000000A4
:100953000000000000000000000000000000000094
:100963000000000000000000000000000000000084
:100973000000000000000000000000000000000074
:100983000000000000000000000000000000000064
:100993000000000000000000000000000000000054
:1009A3000000000000000000000000000000000044
:1009B3000000000000000000000000000000000034
:1009C30000000000008080406020301018080808F4
:1009D30004040404020202020200020201000101F3
:1009E30001000101010001010100010101010101F7
:1009F300800282028204048404880898109020C034
:100A03008080008000000000000000000000000063
:100A130000000000000000000000000000000000D3
:100A230000000000000000000000000000000000C3
:100A330000000000000000000000000000000000B3
:100A4300000000000001000080C02060101000487A
:100A53000884A08440624E4A1351216001508140B2
:100A6300894001400900410008410001480100405C
:100A730008004008000040080080080000800800CB
:100A8300800B0EF00801000901000109000A020AA7
:100A930002040C0818F008000800081010001020C9
:100AA3002040800000000000000000000000000063
:100AB3000000000000000080402020001000080417
:100AC3000000020079CC8701000000000000000054
:100AD3000705080810100020200040400080000097
:100AE30000000100000200040000000400000800F0
:100AF3000010000020000000400000008080C06063
:100B0300100C070001000001000002000000028039
:100B130040221008060100080008009040502020E1
:100B2300300C2740408080000000000000000000DF
:100B3300000000F08C020100000000000000000033
:100B43000000000000000001010202040404080088
:100B53000808080008080800101010001010001002
:100B6300111001101210101210041010141010188C
:100B730010181010181008080C0C040A01010800C2
:100B8300090088014800220810080A080406010425
:100B930004040404040A000A010801080008000808
:100BA300080800080404040300000000000000001B
:100BB3000000000003020408081020002000404049
:100BC3000080008000000000000000000000000022
:100BD3000000000000000000000000000000000012
:100BE3000000000000800000800000800000400042
:100BF3002000002000001000080000040000020094
:100C030001000000000000000000000000000000E0
:100C130000000000000000000000000000000000D1
:100C230000000000000000000000000000000000C1
:100C330000000000000000000000000000000000B1
:100C4300000000000001000100010000010001009C
:100C5300010001000001000100000100000100018A
:100C63000000010000000000000000000000000080
:100C73000000000000000000000000000000000071
:100C83000000000000000000000000000000000061
:100C93000000000000000000000000000000000051
:100CA3000000000000000000000000000000000041
:100CB3000000000000000000000000000000000031
:100CC3000000000000000000000000000000000021
:100CD3000000000000000000000000000000000011
:100CE3000000000000000000000000000000000001
:100CF30000000000000000000000000000000000F1
:100D030000000000000000000000000000000000E0
:100D130000000000000000000000000000000000D0
:080D23000000000000000000C8
:1016950002190000021600000214000001130001E7
:1016A500180001080001261901281101271C01292C
:0116B500161E
:1016B700D3EF9400EE940040147D6E7C00ED1D7016
:0D16C700011CED4C70F7EF1F70E61E80E374
:0116D40022F3
:09174A00D2B2D2B3C2B3C2B22282
:09175300C2B2C2B3D2B2D2B32279
:0715A000AD0712174A7F7826
:1015A700E4FEEEC39408748094805015EF30E7048E
:1015B700D2B38002C2B3D2B2C2B2EF25E0FF0E802F
:0715C700E1D2B3D2B2C2B2BF
:0115CE0022FA
:1015CF0075F010A42CF582E435F0F583E582242B19
:0B15DF00F582E5833403F583E493FFFD
:1015EA001215A07F401215A7AF051215A7021753AF
:0D16F30024B0FF1217007F011217007F10B6
:101700001215A0E4FF1215A7AF051215A702175373
:1016D500AC07ED24B0FF121700EC54F0C4540F44CE
:0E16E50010FF121700EC540F4401FF02170013
:0215FA00AC073C
:1015FC00E4FBEBC3940874809480501BEB1216F33D
:10160C00E4FAEAC39480748094805008AF041215F5
:07161C00EA0A80EE0B80DBFF
:0116230022A4
:10162400E4FCECC3940874809480501BEC1216F311
:10163400E4FBEBC39480748094805008E4FF12159B
:07164400EA0B80EE0C80DBD5
:01164B00227C
:1010E1007FF47E011216B77FAE121700E4FF1216CD
:1010F100FB7F401217007F811217007FCF1217006C
:101101007FA11217007FC81217007FA61217007F58
:10111100A81217007F3F1217007FD3121700E4FFB8
:101121001217007FD51217007F801217007FD91286
:1011310017007FF11217007FDA1217007F121217C2
:10114100007FDB1217007F401217007F201217006B
:101151007F021217007F8D1217007F141217007F74
:10116100A41217007FA61217007FAF121700E4FF29
:091171001215FAE4FDFF0216D587
:0C139C008F2B8C2C8D2D8B2E8A2F8930EE
:1013A800E4F531FCF532AB2EAA2FA93085328275CF
:1013B800830012129D605524E0F531D3E52B947E0D
:1013C80074809480400BE4F52B052DE52D70020503
:1013D8002CAD2DAF2B1216D5E4FCECC3940674800B
:1013E8009480501E75F006E531A42403F582E5F0DB
:1013F8003401F583E5822CF582E435831215E50C7A
:0C14080080D87406252BF52B0532809A45
:0114140022B5
:0C117A008F338C348D358B368A378938E2
:10118600E4F539FCF53AAB36AA37A938853A8275C3
:10119600830012129D607324E0F539D3E533947809
:1011A60074809480400BE4F5330535E5357002050F
:1011B60034AD35AF331216D5E4FCECC39408748015
:1011C60094805008E5391215CF0C80EEE53504FD04
:1011D600AF331216D5E4FCECC394087480948050A7
:1011E6001E75F010E539A42CF582E435F0F583E59B
:1011F600822433F582E58334031215E50C80D87416
:0A120600082533F533053A02118C78
:0112100022BB
:0D131F0075F00A84E5F02430FB7D027C00AF
:08132C008C3B8D3CAA07AF03C6
:10133400E4FCF9EF24E0FBEAD394787480948040D1
:101344000AE4FA053CE53C7002053BAF02AD3C12F1
:1013540016D5E4FCECC39408748094805007EB1217
:1013640015CF0C80EFAF02E53C04FD1216D5E4FC6A
:10137400ECC3940874809480501D75F010EBA42C79
:10138400F582E435F0F583E5822433F582E5833490
:07139400031215E50C80D9DE
:01139B00222F
:0A1415007B037D027A007C007F401B
:06141F008C3B8D3CA90787
:10142500E4FCAE02EB7805C333CE33CED8F9FBAA84
:1014350006AF01AD3C1216D5E4FCECC394107480E4
:101445009480501374032BF58274003A1215E50B42
:10145500BB00010A0C80E3AF01E53C04FD1216D583
:10146500E4FCECC3941074809480501374032BF542
:0F1475008274003A1215E50BBB00010A0C80E3EC
:011484002245
:081485007B1A7A007D027C0055
:06148D008C3B8D3CA90719
:10149300E4FCEBC4F8540FC868FFEAC454F048AB4B
:1014A30007FAAF011216D5E4FCECC39408748094D8
:1014B300805013742B2BF58274033A1215E50BBB82
:1014C30000010A0C80E3AF01E53C04FD1216D5E4EC
:1014D300FCECC39408748094805013742B2BF58216
:0E14E30074033A1215E50BBB00010A0C80E3FE
:0114F10022D8
:1014F200C2971210E112172712164C7509008F0AB3
:1015020012164C750B008F0C12164C750D008F0EB7
:1015120012164C750F008F1012164C7511008F1297
:10152200121555120FC4120D2B121672E4F52AC3AE
:10153200E52A945674809480500712175C052A801D
:10154200EEC3E51A9404E519940040A9E4F519F5EF
:031552001A80A25A
:06173E00121744121744CB
:05174400007F02DFFE42
:01174900227D
:08175C007F147E71DEFEDFFC4C
:011764002262
:1017100053877F75985053890F438920758BFD75CA
:071720008DFDC2ABD28E2249
:10172700D2A000C2A012175C12175CD2A012173EFB
:0717370030A0FD20A0FD22FF
:10164C00E4FEFDEDC39408748094805016EE25E002
:10165C00FE30A0FD12173E30A00620A0FD4306016F
:05166C000D80E0AF0657
:011671002256
:100D2B00E4FBFAFDFCFF12141F7B017A00E4FDFCCF
:100D3B007F1012141F7B1A7A00E4FDFC7F20121423
:100D4B008DE51B2430FBE4FDFC7F2812132CE51EE4
:100D5B002430FBE4FDFC7F3012132C7B0E7A00E475
:100D6B00FDFC7F3812148DE5222430FBE4FDFC7F63
:100D7B004012132C7B5F7A00E4FDFC7F4812148D2C
:100D8B007B237A00E4FDFC7F5012148DE51A451984
:100D9B00700E7B06FA7D02FCFF12141F7B0380147E
:100DAB00E51A6401451970237B02FA7D02FCFF12E0
:100DBB00141F7B071214177B027A007D067C00E45C
:100DCB00FF12141F7B037D06121419E51A640245EA
:100DDB0019701E7B02FA7D02FCFF12141F121415F0
:100DEB007B067A007D067C00E4FF12141F7B0380D8
:100DFB0024E51A6403451970237B02FA7D02FCFF7C
:100E0B0012141F1214157B027A007D067C00E4FF7E
:100E1B0012141F7B077A007D0612141B7F1012140D
:100E2B0085E52675F00A842430FB7D027C007F1853
:100E3B0012132CE5267F2012131F7B5F7A007D0295
:100E4B007C007F2812148D7B237A007D027C007F2F
:100E5B003012148D7F50121485E52875F00A842406
:100E6B0030FB7D027C007F5812132CE5287F60122B
:100E7B00131F7B5F7A007D027C007F6812148D7BD1
:100E8B00237A007D027C007F7012148D7B057A0023
:100E9B007D047C00E4FF12141F7B017A007D047C2F
:100EAB00007F1012141F7B1A7A007D047C007F20B8
:100EBB0012148DE51D2430FB7D047C007F2812135A
:100ECB002CE51F2430FB7D047C007F3012132C7B20
:100EDB000E7A007D047C007F3812148DE5232430BC
:100EEB00FB7D047C007F4012132CE5242430FB7D1A
:100EFB00047C007F4812132CE5252430FB7D047CF9
:100F0B00007F5012132C7B057A007D047C007F58E8
:100F1B0012148DE51A2430FB7D047C007F601213C4
:100F2B002C7B1A7A007D067C007F1012148DE5272E
:100F3B0075F00A842430FB7D067C007F1812132C7D
:100F4B00E52775F00A84E5F02430FB7D067C007FF5
:100F5B002012132C7B057A007D067C007F2812144F
:100F6B008D7B1A7A007D067C007F5012148DE5294B
:100F7B0075F00A842430FB7D067C007F5812132CFD
:100F8B00E52975F00A84E5F02430FB7D067C007FB3
:100F9B006012132C7B057A007D067C007F6812148F
:100FAB008DE51CB51208E4B511047B5980037B4E0B
:090FBB00E4FDFC7F7012132C22EE
:1015550020851F12175C20850AD297051AE51A7097
:101565000205193085FDE51A640445197004F5195D
:10157500F51A20861112175C208608D2977514007B
:101585007515013086FD20871112175C208708D25A
:0B159500977516007517013087FD22C6
:100FC400E517640145167030E51A451970041526B5
:100FD4008022E51A64014519700415288016E51A63
:100FE4006402451970041527800AE51A640345193B
:100FF40070061529F516F517E515640145147030CA
:10100400E51A4519700405268022E51A640145197C
:10101400700405288016E51A640245197004052732
:10102400800AE51A6403451970060529F514F515B7
:10103400AE0DAF0E7C007D0A1212CA8F1BAE0DAF2F
:101044000E7C007D0A1212CA8D1EAE0FAF107C00FA
:101054007D641212CA8F20AE0FAF107C007D641223
:1010640012CA7E007F0ACFCDCFCECCCE1212CA8F49
:1010740021AE0FAF107C007D0A1212CA8D22AB0E76
:101084008B13AE09AF0A7C007D0A1212CA8F1DAE03
:1010940009AF0A7C007D0A1212CA8D1FAE0BAF0C79
:1010A4007C007D641212CA8F23AE0BAF0C7C007DD2
:1010B400641212CA7E007F0ACFCDCFCECCCE1212DC
:1010C400CA8F24AE0BAF0C7C007D0A1212CA8D2588
:0D10D400AF0A8F18EF250C2B2510F51C22FC
:10167200E513D395284012E5139526500CE51895ED
:10168200294006E51895274005C296D29722D296A0
:03169200C29722DA
:10121D000214F2E493A3F8E493A34003F68001F2E1
:10122D0008DFF48029E493A3F85407240CC8C333D2
:10123D00C4540F4420C8834004F456800146F6DFA1
:10124D00E4800B0102040810204080901695E47E86
:10125D00019360BCA3FF543F30E509541FFEE49396
:10126D00A360010ECF54C025E060A840B8E493A35D
:10127D00FAE493A3F8E493A3C8C582C8CAC583CA88
:10128D00F0A3C8C582C8CAC583CADFE9DEE780BE40
:0116B6000033
:10129D00BB010CE58229F582E5833AF583E0225006
:1012AD0006E92582F8E622BBFE06E92582F8E22250
:0D12BD00E58229F582E5833AF583E493226A
:1012CA00BC000BBE0029EF8DF084FFADF022E4CC08
:1012DA00F875F008EF2FFFEE33FEEC33FCEE9DECD1
:1012EA00984005FCEE9DFE0FD5F0E9E4CEFD22ED17
:1012FA00F8F5F0EE8420D21CFEADF075F008EF2F61
:10130A00FFED33FD4007985006D5F0F222C398FD51
:05131A000FD5F0EA22EE
:00000001FF
