:030000000205A353
:0C05A300787FE4F6D8FD75812902000E77
:0C05AF003F065B4F666D7D077F6F38765E
:040564007F0A7E008C
:10056800D3EF9400EE940040147D7C7C00ED1D7068
:0D057800011CED4C70F7EF1F70E61E80E3D4
:010585002253
:0C059600152615261526152615261526F7
:0105A2002236
:10051800E4FF750E017E08EF25E0FFE4FD20A00949
:10052800AC050DECC3941440F4EDC3941440028060
:100538002312059612059612059630A01C0F30A0BE
:100548000DAC050DECC394145004D2A080F0EDC39B
:0B05580094144005E4F50EFF22DEBC09
:010563002275
:1002D000E4FBF9FAC2AFC2A07F14FE120568D2A0F7
:1002E00012059612059612059612059630A0028008
:1002F0007420A009AF020AEFC3941440F4EAC39437
:100300001440028016E4FAD2A030A009AF020AEF2E
:10031000C3941440F4EAC394144004D2A08046E489
:10032000FB12051874092BF8A607E50E7006D2A07B
:10033000D2AFFF22EB6404600774092BF8E629F9B9
:100340000BBB05DDE9B50D1DE50975F00AA485F0C7
:1003500011F512E50B75F00AA485F013F514D2A07F
:09036000D2AF7F0122D2AF7F0071
:010369002271
:1004B6007C007D0A12046174AF2DF58274053CF54B
:0504C60083E493F5182A
:1004CB00E4FA20A6177F0AFE12056820A60E7A030F
:1004DB00E4FB20A6071205640BBB32F620A5141211
:1004EB00056420A50E7A02E4FB20A5071205640B18
:1004FB00BB32F620A41412056420A40E7A01E4FB8F
:0C050B0020A4071205640BBB32F6AF02FF
:0105170022C1
:10036A00E4FFD2A3C2A2EFB40800504590037DF87F
:10037A0028287302039502039A02039F0203A40228
:10038A0003A90203AE0203B30203B875807F80217A
:10039A007580BF801C7580DF80177580EF801275AD
:1003AA0080F7800D7580FB80087580FD800375805D
:1003BA00FEC2A3D2A274152FF8E6F5807D327C0026
:1003CA00ED1DAA0470011C4A70F6E4F5800FEF6473
:0303DA0008708F19
:0103DD0022FD
:10000E00E4F5257FE87E031205681202D07FB87EE4
:10001E000B120568120586C2A3C2A2751F007520B9
:10002E001E752300752414751D00751E6475210040
:10003E00752214D2A7750F00751001E50F6003022B
:10004E0002CAE51024FE607714700302012B1470AF
:10005E00030201C414700302025B24046003020253
:10006E00CA9005BAE493F51C9005B0E493F51BAE67
:10007E001FAF207C007D0A12046174AF2FF58274CD
:10008E00053EF583E493F519AE1FAF201204B6EFCB
:10009E0024FE601414601F240260030202CA74FE60
:1000AE002520F52074FF800774022520F520E43505
:1000BE001FF51F0202CA750F007510020202CA90C8
:1000CE0005B9E493F51C9005B0E493F51BAE23AF90
:1000DE00247C007D0A12046174AF2FF58274053EF4
:1000EE00F583E493F519AE23AF241204B6EF24FE84
:1000FE00601414601F240260030202CA74FE2524D9
:10010E00F52474FF800774022524F524E43523F5C5
:10011E00230202CA750F007510030202CA9005BAB7
:10012E00E493F51C9005B1E493F51BAE1DAF1E7C58
:10013E00007D6412046174AF2FF58274053EF58361
:10014E00E493F519AE1DAF1E7C007D641204617E32
:10015E00007F0ACFCDCFCECCCE12046174AF2FF577
:10016E008274053EF583E493F518AE1DAF1E7C0038
:10017E007D0A12046174AF2DF58274053CF583E49B
:10018E0093F5171204CBEF24FE601414601F2402A3
:10019E0060030202CA74FE251EF51E74FF800774EA
:1001AE0002251EF51EE4351DF51D0202CA750F004F
:1001BE007510040202CA9005B9E493F51C9005B1BE
:1001CE00E493F51BAE21AF227C007D6412046174B2
:1001DE00AF2FF58274053EF583E493F519AE21AF8A
:1001EE00227C007D641204617E007F0ACFCDCFCECB
:1001FE00CCCE12046174AF2FF58274053EF583E404
:10020E0093F518AE21AF227C007D0A12046174AF03
:10021E002DF58274053CF583E493F5171204CBEFAC
:10022E0024FE601414601E240260030202CA74FECF
:10023E002522F52274FF800774022522F522E4356B
:10024E0021F5218077750F00751005806FE4F51983
:10025E00E508641E7051F50805251202D0AE23AFD5
:10026E00247C007D0A12044FC3E5149FE5139E40C3
:10027E0030AE1FAF2012044FD3E5149FE5139E50EE
:10028E0020AE21AF2212044FC3E5129FE5119E400E
:10029E0010AE1DAF1E12044FD3E5129FE5119E4006
:1002AE0004C2A78002D2A7E4FDFCAF14AE13120362
:1002BE00DE7D017C00AF12AE111203DE12036A0264
:0202CE000049E5
:10058600758C3C758AAF758901D28CD2A9D2AF22FF
:0803DE008C268D27AB07AA064F
:1003E6007C007D0A1204618D287C007D64AF03AE1B
:1003F600021204617E007F0ACFCDCFCECCCE12048E
:10040600618F29AE02AF037C037DE81204617E0092
:100416007F64CFCDCFCECCCE120461E527452670C2
:1004260014EF9005AF93F51CE529934480F51BE581
:100436002893F51A22EF9005AF93F518E529934412
:0804460080F517E52893F51677
:01044E00228B
:03000B000205BB30
:0905BB00758C3C758AAF0508320D
:10044F00EF8DF0A4A8F0CF8CF0A428CE8DF0A42EC1
:02045F00FE227B
:10046100BC000BBE0029EF8DF084FFADF022E4CC7F
:10047100F875F008EF2FFFEE33FEEC33FCEE9DEC48
:10048100984005FCEE9DFE0FD5F0E9E4CEFD22ED8E
:10049100F8F5F0EE8420D21CFEADF075F008EF2FD8
:1004A100FFED33FD4007985006D5F0F222C398FDC9
:0504B1000FD5F0EA2266
:00000001FF
