:03000000020026D5
:0C002600787FE4F6D8FD75810A02006DB9
:09000E00010800010A0F01090FAD
:10014D0075B80853877F7589004389217598507557
:10015D008DFD758BFDD2ACC2ABD28E758CFF758AC1
:06016D00A4D2A9D28C22ED
:03000B00020110DF
:10011000C0E0C0D0C28C758CFF758AA4E508D39569
:10012000095004D2A68002C2A6E508D3950A50045D
:10013000D2808002C2800508C3E50894C874809408
:0D014000804003750800D28CD0D0D0E03292
:0500030012014D80FE1A
:030023000200B226
:0900B200C0E0C0D075D000C00709
:1000BB0030984BC2ACC298AF99EF24996019146079
:1000CB002824027037050AC3E50A941974809480BA
:1000DB004027750A198022150AD3E50A9405748006
:1000EB0094805003750A058010050AC3E50994191D
:0E00FB00748094804003750919750800D2AC1A
:07010900D007D0D0D0E03296
:10003200020003E493A3F8E493A34003F68001F2E1
:1000420008DFF48029E493A3F85407240CC8C333CF
:10005200C4540F4420C8834004F456800146F6DF9E
:10006200E4800B010204081020408090000EE47E20
:10007200019360BCA3FF543F30E509541FFEE49393
:10008200A360010ECF54C025E060A840B8E493A35A
:10009200FAE493A3F8E493A3C8C582C8CAC583CA85
:1000A200F0A3C8C582C8CAC583CADFE9DEE780BE3D
:0100170000E8
:00000001FF
