:0300000002009A61
:0C009A00787FE4F6D8FD75810B020003AE
:10006200E4FDFCC3ED9FEE6480F8EC6480985015CB
:10007200E4FBFA0BBB00010ABA07F8BB23F50DBD7E
:0500820000010C80DE0E
:010087002256
:08008800E5829DFFE5839CFE6B
:0A009000EF1F70011E144E70F722DE
:10000300900190E4FDFC7F647E001200627C007D21
:1000130001C3ED9582EC95835018E4F590AF05AEDE
:10002300041200907590FFC31200880DBD00010CEF
:1000330080DF7590FFE58224FFFDE58334FFFCD369
:10004300ED9400EC940040BEE4F590AF05AE0412CD
:0F00530000907590FF120088ED1D70E31C80E097
:00000001FF
