:1001090011082050656368696E20536369656E63E1
:030119006520005E
:1000CF001200F0E4F519C3E5199410748094805070
:1000DF000E74082519F8E6FF120127051980E7802D
:0100EF00FE12
:10008F00C2A58F807F017E001200A0D2A77F057EC0
:01009F000060
:1000A000D3EF9400EE940040257DC7EDD394007407
:1000B00080948040127C01ECD39400748094804042
:0E00C000031C80F31D80E4EF1F70D51E80D25C
:0100CE00220F
:0A011D00C2A7C2A612008FC2A722DB
:0A012700C2A7D2A612008FC2A722C1
:1000F0007F3812011D7F0C12011D7F0612011D7F2A
:090100000112011D7F8002011DA6
:03000000020003F8
:0C000300787FE4F6D8FD75811902004AF0
:10000F000200CFE493A3F8E493A34003F68001F238
:10001F0008DFF48029E493A3F85407240CC8C333F2
:10002F00C4540F4420C8834004F456800146F6DFC1
:10003F00E4800B0102040810204080900109E47E47
:10004F00019360BCA3FF543F30E509541FFEE493B6
:10005F00A360010ECF54C025E060A840B8E493A37D
:10006F00FAE493A3F8E493A3C8C582C8CAC583CAA8
:10007F00F0A3C8C582C8CAC583CADFE9DEE780BE60
:01011C0000E2
:00000001FF
